:020000040000FA
:100000000C9462000C948A000C948A000C948A0070
:100010000C948A000C948A000C948A000C948A0038
:100020000C948A000C948A000C948A000C948A0028
:100030000C948A000C948A000C948A000C948A0018
:100040000C9422060C948A000C948A000C948A006A
:100050000C948A000C948A000C948A000C948A00F8
:100060000C948A000C948A000000000024002700F1
:100070002A0000000000250028002B0000000000DE
:1000800023002600290004040404040404040202DA
:100090000202020203030303030301020408102007
:1000A0004080010204081020010204081020000012
:1000B0000008000201000003040700000000000027
:1000C0000000060811241FBECFEFD8E0DEBFCDBF71
:1000D00012E0A0E0B1E0E2E5F1E102C005900D928E
:1000E000A031B107D9F722E0A0E1B2E001C01D9232
:1000F000A13BB207E1F710E0C2E6D0E004C02197CF
:10010000FE010E949308C136D107C9F70E946C0610
:100110000C94A7080C94000096E0899FD00111244C
:10012000A65DBD4F90967C936E935F9791E09196FC
:100130009C939197E0919702F0919802909196028A
:10014000992339F0309751F0811108C0809146020F
:100150000994309719F05C968C91FACF0895CF925C
:10016000DF92EF92FF920F931F9396E0899FF00129
:100170001124E65DFD4F11A2278D30A121303105FC
:1001800051F178F02230310509F451C023303105A6
:1001900009F452C01F910F91FF90EF90DF90CF9024
:1001A00008956623B9F361E070E00E948C002FB7D8
:1001B000F8948091260290912702A0912802B09194
:1001C00029022FBF8093820290938302A09384021E
:1001D000B0938502DFCF9FB7F894C0902602D090ED
:1001E0002702E0902802F09029029FBF009182022E
:1001F000109183022091840230918502C01AD10AA5
:10020000E20AF30A009194021091950230E020E096
:100210000C151D052E053F0550F462E070E01F919E
:100220000F91FF90EF90DF90CF900C948C006111B4
:10023000B1CF63E070E0F3CF70E060E0F0CF8330E7
:1002400081F028F4813099F08230A9F00895873048
:10025000A9F08830C9F08430B1F4809180008F7D9E
:1002600003C0809180008F7780938000089584B5CB
:100270008F7784BD089584B58F7DFBCF8091B000CA
:100280008F778093B00008958091B0008F7DF9CF73
:10029000CF93DF93282F30E0F901E255FF4F84918F
:1002A000F901E656FF4FD491F901EA57FF4FC49187
:1002B000CC23A1F081110E941F01EC2FF0E0EE0F82
:1002C000FF1FE458FF4FA591B491EC91ED2381E01D
:1002D00090E009F480E0DF91CF91089580E090E014
:1002E000FACF862F0C9448011F93CF93DF93282FCA
:1002F00030E0F901E255FF4F8491F901E656FF4FD6
:10030000D491F901EA57FF4FC491CC23A9F0162FDD
:1003100081110E941F01EC2FF0E0EE0FFF1FEE583D
:10032000FF4FA591B4918FB7F894EC91111108C0CB
:10033000D095DE23DC938FBFDF91CF911F9108957D
:10034000DE2BF8CF862F642F0C947401CF93DF93AC
:1003500090E0FC01E656FF4F24918A579F4FFC0125
:1003600084918823C9F090E0880F991FFC01E85917
:10037000FF4FA591B491FC01EE58FF4FC591D49168
:1003800061110DC09FB7F8948C91209582238C93B6
:100390008881282328839FBFDF91CF910895623001
:1003A00051F49FB7F8943C91822F809583238C93CE
:1003B000E8812E2BEFCF8FB7F894EC912E2B2C9356
:1003C0008FBFEACF862F642F0C94A6016F927F9285
:1003D0008F929F92AF92BF92CF92DF92EF92FF9255
:1003E0000F931F93CF93DF9381E0809396028FB793
:1003F000F894409126025091270260912802709152
:1004000029028FBF8091860290918702A091880275
:10041000B0918902481B590B6A0B7B0B80919202A9
:1004200090919302B0E0A0E084179507A607B70764
:1004300008F01DC1C0E080919002C81760F4E091FF
:100440008C02F0918D02EC0FF11D62E080810E9420
:10045000A601CF5FF0CF712C812C912C5401839495
:1004600080919102781608F05FC0072D10E0E091AE
:100470008E02F0918F02E00FF11F61E080810E94F7
:10048000A601E0918E02F0918F02E00FF11F60E073
:1004900080810E947401D501C401072C04C0880F1B
:1004A000991FAA1FBB1F0A94D2F76C017C01E0942C
:1004B000F094612C809190026816F8F4C62DD0E07B
:1004C000E0918C02F0918D02EC0FFD1F80810E9463
:1004D00048012496CC0FDD1FC65DDD4F892B41F40A
:1004E000888199818C299D29998388836394E2CF9F
:1004F000888199818E219F21F7CFE0918E02F09122
:100500008F02E00FF11F61E080810E9474018091F1
:100510008E0290918F02080F191F60E0F801808110
:100520000E94A60173949CCFCAE2D2E0FE018FEF35
:100530009FEF278D30A1232B21F4148E968F858F6A
:1005400011A2369622E0E636F20799F7F12C96E0F2
:10055000D92E80919002F81608F050C0E12C0F2D92
:1005600010E0000F111F0E5C1D4F20919102E2164A
:1005700008F042C0F801608171810E2C02C07695AE
:1005800067950A94E2F7F29E900111242E0D311D19
:10059000EAE2F2E080E0458D568D2417350709F434
:1005A0006AC08F5F36968A30B1F760FF23C0EAE2F7
:1005B000F2E090E080E0448D411117C0E0918A02A2
:1005C000F0918B02E20FF31F4081D89EF001D99E7B
:1005D000F00D1124E65DFD4F448F368F258F10A25C
:1005E000178E61E00E94AF0005C0019636968A30F2
:1005F000910509F7E394B9CFF394ABCF80E099A1CB
:100600009111892F2696F2E0C636DF07C1F79FB712
:10061000F89440912602509127026091280270912F
:1006200029029FBF409386025093870260938802FD
:10063000709389028823D9F080914B028823B9F006
:100640008091490290914A02019789F48091460273
:10065000DF91CF911F910F91FF90EF90DF90CF909E
:10066000BF90AF909F908F907F906F900895109261
:10067000960280E0EDCF6170B5CF3FB7F8948091DE
:10068000220290912302A0912402B091250226B566
:10069000A89B05C02F3F19F00196A11DB11D3FBFBA
:1006A000BA2FA92F982F8827BC01CD01620F711D89
:1006B000811D911D42E0660F771F881F991F4A9583
:1006C000D1F708958F929F92AF92BF92CF92DF920F
:1006D000EF92FF924B015C010E943D036B017C0194
:1006E0000E943D036C197D098E099F09683E734085
:1006F00081059105A8F321E0821A9108A108B108AB
:1007000088EEC80E83E0D81EE11CF11C8114910410
:10071000A104B10429F7FF90EF90DF90CF90BF9034
:10072000AF909F908F900895AF92BF92CF92DF923B
:10073000EF92FF920F931F93CF93DF936C017B0196
:100740008B01040F151FEB015E01AE18BF08C01727
:10075000D10759F06991D601ED91FC910190F0819A
:10076000E02DC6010995892B79F7C501DF91CF915D
:100770001F910F91FF90EF90DF90CF90BF90AF90BF
:100780000895089590E080E00895FC010190002014
:10079000E9F73197AF01481B590BBC0189E992E099
:1007A0000C9494030C94C503CF93DF93EC0160E0A9
:1007B0008E810E94740161E08E810E94740160E06C
:1007C0008E810E9474018BE891E00197F1F7DF912F
:1007D000CF910895CF92DF92EF92FF920F931F93E4
:1007E000CF93DF936C017C0187E0E80EF11CD0E031
:1007F000C0E0062F10E0B8010C2E02C07595679579
:100800000A94E2F76170F70181917F010E947401FF
:100810002196C430D10579F7C601DF91CF911F91A0
:100820000F91FF90EF90DF90CF900C94D403CF9274
:10083000DF92EF92FF920F931F93CF93DF93EC0120
:10084000F62E642F8C810E9474018D818F3F19F0E8
:1008500060E00E9474010F2D10E08F8584FF25C099
:100860006E0187E0C80ED11CF12CE12CB8010E2CD2
:1008700002C0759567950A94E2F76170F60181915F
:100880006F010E947401FFEFEF1AFF0A88E0E8167B
:10089000F10461F7CE01DF91CF911F910F91FF908D
:1008A000EF90DF90CF900C94D403B80184E075955D
:1008B00067958A95E1F7CE010E94EA036F2DCE017C
:1008C000DF91CF911F910F91FF90EF90DF90CF902C
:1008D0000C94EA0340E0682F89E992E00C94170435
:1008E00081E00E946A048BE39FE10197F1F708958C
:1008F000CF93DF93823029F49091A802986090936F
:10090000A8028093AC021092AD0280E48093AE0204
:1009100080E18093AF0280E58093B00261E0809136
:100920009D020E94A60180919E028F3F19F061E016
:100930000E94A60161E080919F020E94A601C9E980
:10094000D2E09E01295932408091A80284FD0BC05B
:1009500084E090E021962817390744F461E08E8105
:100960000E94A601EECF88E090E0F4CF8BE39DE0FB
:100970000197F1F760E080919D020E94740160E0B0
:1009800080919F020E94740180919E028F3F19F016
:1009900060E00E9474018091A80284FD34C063E08D
:1009A00089E992E00E94EA03CBE4D6E4CE01019704
:1009B000F1F763E089E992E00E94EA032197F1F7F9
:1009C00063E089E992E00E94EA0383E592E00197FF
:1009D000F1F762E089E992E00E94EA038091A802BF
:1009E00080620E946A0484E08093A9028CE00E94E5
:1009F0006A040E94700482E08093AA0286E0DF917C
:100A0000CF910C946A0480620E946A048BE496E49D
:100A10000197F1F78091A80280620E946A0483E541
:100A200092E00197F1F78091A80280620E946A0427
:100A3000D5CF9091AC02691710F06FEF690FE62FD8
:100A4000F0E0E756FD4F9489890F80680C946A04A2
:100A500041E00E94170481E090E008950F931F93F6
:100A6000CF93DF9361E08AE00E94A60161E08CE011
:100A70000E94A60182E00E9478048EE291E00E942A
:100A8000D20361E080E00E9419058BE391E00E94AF
:100A9000D20368EC70E080E090E00E9462030E9464
:100AA00070048CE491E00E94D20361E080E00E9437
:100AB000190561E390E080E00E94850862E381E02F
:100AC00090E00E94850863E382E090E00E94850840
:100AD00064E383E090E00E94850804E112E0D0E046
:100AE000C0E0CE010E947D08F80181938F0121961C
:100AF000C430D105B1F7DF91CF911F910F910895C7
:100B0000EF92FF921F93CF93DF930E9470048BE5C7
:100B100091E00E94D20361E080E00E941905C0E1EB
:100B2000D2E082E0C431D80761F00E94E601882358
:100B3000C1F3899341E0682F89E992E00E9417048C
:100B4000F0CF68EC70E080E090E00E94620344E047
:100B500050E064E172E080E192E00E949908EC01CB
:100B6000892B09F43FC00E94700461E08CE00E9470
:100B700074018CE691E00E94D20361E080E00E9463
:100B8000190587E791E00E94D20368EE73E080E0E8
:100B900090E00E94620381E891E00E94D20360E04D
:100BA0008CE00E9474010E94E6018093200283324F
:100BB000A1F40E9480050E9470048CE491E00E94E0
:100BC000D20361E080E00E94190510922002DF91BB
:100BD000CF911F91FF90EF9008958B3261F70E94A3
:100BE0002E05E9CF0E94700482E991E00E94D203B1
:100BF00061E080E00E94190584E1E82E82E0F82E91
:100C0000C430D105A1F00E94E601182F8823C1F35A
:100C1000F70181937F0141E0682F89E992E00E940A
:100C20001704612FCE010E9485082196E9CF80EA42
:100C300091E00E94D20368EE73E080E090E00E94B1
:100C40006203B9CF1F920F920FB60F9211242F9308
:100C50003F938F939F93AF93BF9380912602909180
:100C60002702A0912802B09129023091210223E0AD
:100C7000230F2D3758F50196A11DB11D2093210298
:100C80008093260290932702A0932802B093290212
:100C90008091220290912302A0912402B09125021A
:100CA0000196A11DB11D8093220290932302A0936F
:100CB0002402B0932502BF91AF919F918F913F91F4
:100CC0002F910F900FBE0F901F90189526E8230FBD
:100CD0000296A11DB11DD2CF789484B5826084BDE7
:100CE00084B5816084BD85B5826085BD85B5816030
:100CF00085BD80916E00816080936E0010928100AE
:100D00008091810082608093810080918100816068
:100D10008093810080918000816080938000809129
:100D2000B10084608093B1008091B00081608093B5
:100D3000B00080917A00846080937A0080917A007C
:100D4000826080937A0080917A00816080937A003B
:100D500080917A00806880937A001092C1000E948E
:100D60002E0500E010E00E94E6018093200283320D
:100D700011F40E948005609120026623A1F0809109
:100D80001E0290911F029C012F5F3F4F30931F0264
:100D900020931E02865E9D4FFC01608341E089E93D
:100DA00092E00E9417048091180290911902039713
:100DB0000CF0ECC080911E0290911F02049709F084
:100DC000DEC068EC70E080E090E00E94620384E1A5
:100DD000E82E82E0F82ED0E0C0E0CE010E947D082F
:100DE000F70181937F012196C430D105B1F744E02A
:100DF00050E064E172E08AE192E00E949908892B58
:100E0000E9F50E9470048DEA91E00E94D20361E04E
:100E10008AE00E94740160ED77E080E090E00E943B
:100E2000620361E08AE00E94740161E080E00E9458
:100E300019058BEB91E00E94D20360ED77E080E032
:100E400090E00E94620361E08AE00E9474010E94C7
:100E500070048CEC91E00E94D20361E080E00E947B
:100E6000190510921F0210921E0261E08AE00E9492
:100E70007401109219021092180281C060E08AE099
:100E80000E9474010E9470048CED91E00E94D203D4
:100E900061E080E00E94190581E891E00E94D203A0
:100EA00061E08CE00E94740160E08AE00E947401BD
:100EB00068EE73E080E090E00E94620360E08CE006
:100EC0000E94740160E08AE00E94740168EE73E0A1
:100ED00080E090E00E94620361E08CE00E94740177
:100EE00060E08AE00E94740168EE73E080E090E0C8
:100EF0000E94620360E08CE00E94740160E08AE07E
:100F00000E94740168EE73E080E090E00E9462034A
:100F100061E08CE00E94740160E08AE00E9474014C
:100F200068EE73E080E090E00E94620360E08CE095
:100F30000E94740160E08AE00E94740168EE73E030
:100F400080E090E00E9462030E9470048CE491E0D3
:100F50000E94D20361E080E00E94190510921F02F6
:100F600010921E0260E08AE00E94740180911802D3
:100F7000909119020196909319028093180201151D
:100F8000110509F4F0CE0E940000EDCE0E9470041D
:100F900060E080E00E941905CAE0D0E061E08AE0EC
:100FA0000E94740161E08CE00E9474018BEE91E07C
:100FB0000E94C5038CEF91E00E94C50361E086E0CA
:100FC0000E9419058FEF91E00E94D20368EE73E052
:100FD00080E090E00E94620360E08CE00E94740177
:100FE00060E08AE00E9474010E94700468EE73E081
:100FF00080E090E00E946203219781F60E947004D5
:1010000060E08CE00E94740160E030CF10929C029E
:1010100010929B0286E291E090939A02809399024B
:1010200089E080939D028FEF80939E0288E08093F9
:101030009F0287E08093A00286E08093A10285E072
:101040008093A20284E08093A3021092A4021092E3
:10105000A5021092A6021092A7021092A80281E0A7
:101060000E94780410922C021092300210922F02EB
:10107000109231028CE191E090932B0280932A022E
:10108000E6E4F2E01082148213821582369682E042
:10109000E238F807B9F784E091E090938D028093ED
:1010A0008C0280E091E090938F0280938E0284E026
:1010B000809390028093910288E091E090938B025C
:1010C00080938A028AE090E0909393028093920248
:1010D00084EF91E09093950280939402109298028D
:1010E0001092970210928602109287021092880244
:1010F00010928902109296020895F999FECF92BD3E
:1011000081BDF89A992780B50895262FF999FECFC9
:101110001FBA92BD81BD20BD0FB6F894FA9AF99A14
:101120000FBE01960895EE0FFF1F0590F491E02D7C
:101130000994FB01DC014150504030F08D91019049
:10114000801919F40020B9F7881B990B0895F894B9
:10115000FFCF121303020E0F10113734312338352D
:1011600032303936333D25782D2B00000000E20166
:10117000A20171010000000028059403C203C1030D
:10118000202020202057656C636F6D6500456C65DD
:101190006374726F6E6963204C6F636B2000456EE1
:1011A0007465722050617373776F72640043757257
:1011B00072656E742050617373776F72640057723A
:1011C0006F6E6720506173730054727920416761BC
:1011D000696E0050726573202320746F204368612C
:1011E0006E6765004E65772050617373776F726428
:1011F0003A0050617373204368616E676564005004
:101200006173732041636365707465640050726537
:1012100073202320746F206368616E676500456EDC
:101220007465722050617373776F72643A005772FD
:101230006F6E672050617373776F72640020205364
:1012400061666520204C6F636B65642020000D0A89
:1012500000205741495420202020202020202020F9
:0212600020006C
:107E0000112484B714BE81FFF0D085E080938100F7
:107E100082E08093C00088E18093C10086E0809377
:107E2000C20080E18093C4008EE0C9D0259A86E02C
:107E300020E33CEF91E0309385002093840096BBD3
:107E4000B09BFECF1D9AA8958150A9F7CC24DD24C4
:107E500088248394B5E0AB2EA1E19A2EF3E0BF2EE7
:107E6000A2D0813461F49FD0082FAFD0023811F036
:107E7000013811F484E001C083E08DD089C08234E0
:107E800011F484E103C0853419F485E0A6D080C0E4
:107E9000853579F488D0E82EFF2485D0082F10E0AE
:107EA000102F00270E291F29000F111F8ED06801E7
:107EB0006FC0863521F484E090D080E0DECF843638
:107EC00009F040C070D06FD0082F6DD080E0C81688
:107ED00080E7D80618F4F601B7BEE895C0E0D1E017
:107EE00062D089930C17E1F7F0E0CF16F0E7DF06D8
:107EF00018F0F601B7BEE89568D007B600FCFDCFD4
:107F0000A601A0E0B1E02C9130E011968C91119780
:107F100090E0982F8827822B932B1296FA010C0160
:107F200087BEE89511244E5F5F4FF1E0A038BF0790
:107F300051F7F601A7BEE89507B600FCFDCF97BE46
:107F4000E89526C08437B1F42ED02DD0F82E2BD052
:107F50003CD0F601EF2C8F010F5F1F4F84911BD097
:107F6000EA94F801C1F70894C11CD11CFA94CF0C13
:107F7000D11C0EC0853739F428D08EE10CD085E9AC
:107F80000AD08FE07ACF813511F488E018D01DD067
:107F900080E101D065CF982F8091C00085FFFCCF94
:107FA0009093C60008958091C00087FFFCCF809118
:107FB000C00084FD01C0A8958091C6000895E0E648
:107FC000F0E098E1908380830895EDDF803219F02E
:107FD00088E0F5DFFFCF84E1DECF1F93182FE3DFCA
:107FE0001150E9F7F2DF1F91089580E0E8DFEE27F6
:047FF000FF270994CA
:027FFE00040479
:00000001FF
